:020000040800F2
:100000002821002009010008DB1700080913000857
:10001000D91700080D0C00082B260008000000006E
:10002000000000000000000000000000071E0008A3
:10003000C90F000800000000091B0008A51E0008E9
:100040002301000823010008230100082301000800
:100050002301000823010008ED0F0008211000080B
:1000600039100008230100082301000823010008BB
:1000700023010008230100082301000823010008D0
:1000800023010008230100082301000823010008C0
:1000900023010008230100082301000823010008B0
:1000A00023010008230100082301000823010008A0
:1000B000392000082301000823010008FD1300086F
:1000C000D5130008230100082301000823010008BC
:1000D00023010008152400082301000861240008FA
:1000E000051000082301000823010008ED20000886
:1000F00023010008DFF80CD000F052FC0048004754
:100100008539000828210020064880470648004716
:10011000FEE7FEE7FEE7FEE7FEE7FEE7FEE7FEE7B7
:10012000FEE7FEE7C91E0008F5000008F0B480EA0B
:100130000102D40F4200B2EB410F02D20246084640
:1001400011464A0042D0C30DDDB2C1F3C752AD1A09
:10015000202D35DAC1F3160141F4000204B15242F8
:10016000C5F1200602FA06F12A411044B3EBD05F34
:1001700023D0C4B1012DA0EBC35009DCF0BC4FF07B
:10018000004202EAC352DBB200F5000000F035BBCA
:10019000400000F1807000EBC350A0F1807040EA95
:1001A000D170490009E0490841EAC071A0EBC35091
:1001B00000F50000400800EBC350F0BC00F014BB99
:1001C0006142012202EB4101001BF6E7F0BC7047DF
:1001D00081F00041AAE780F00040A7E780EA010231
:1001E00010B502F00043400022D04A001FD0010E9B
:1001F00001EB1261C0F35600C2F3560240F4000056
:1002000042F40002A0FB022000047F39140400D055
:10021000401C50EA124001D44000491EC2B20C06F4
:1002200004EBD010401C4008802A02D003E00020DC
:1002300010BD20F00100002900DA0020184310BD95
:1002400030B480EA010202F0004530F0004221F0B3
:10025000004013D090B1C30DD40DC2F31601C0F30A
:100260001600E41A41F4000140F400027D3491428A
:1002700001D3641C00E04900002C02DA30BC0020ED
:1002800070474FF400000023914201D3891A0343C1
:1002900040084FEA4101F7D151B1914202D14FF0EC
:1002A000004105E002D24FF0010101E06FF00101D1
:1002B00003EBC450284430BC00F096BA2DE9FE4F41
:1002C000804681EA0300C00F0C46009021F00041F7
:1002D00023F00045B8EB0200A94105D24046214673
:1002E00090461C460B46024623F00040104347D080
:1002F000270DC7F30A00C3F30A510290401A019078
:1003000040286BDAC3F3130040F4801B0098924638
:1003100020B10023D2EB030A63EB0B0B0198594683
:10032000C0F14002504600F02EFA06460D465046F7
:100330005946019A00F046FA10EB0800614100248A
:1003400087EA115284EAE7731A4340D0009A62B3F5
:10035000019A012A4FEA075215DC001B61EB0201EA
:100360004FF0004202EA0752CDE90042001C41F57D
:10037000801132462B4600F07DFA03B0BDE8F08FC5
:1003800040462146F9E7001B61EB0201001C41F5E4
:10039000801300185B412018A2F5001747EB0301FA
:1003A00040EAD570B6196D4111E06D084FEA360686
:1003B00045EAC0754FEA0752001B61EB0201001CC1
:1003C00041F5801149084FEA300000195141324689
:1003D0002B4603B0BDE8F04F00F03DBA0098012273
:1003E00040000023D0EB020263EBE073009821464B
:1003F0004FEAE074B8EB000061EB0401E9E783F039
:1004000000435BE781F0004158E72DE9FE4F81EAA8
:10041000030404F0004421F0004100944FF0000B6D
:1004200023F0004350EA01045ED052EA03045BD09B
:10043000C3F30A54C1F30A552C44A4F2F3340194D3
:10044000A0FB0254C1F3130141F48011C3F3130361
:1004500043F4801301FB024400FB034E840A970A15
:1004600044EA815447EA8357A4FB076802958D0A42
:1004700005FB07854FEA932C04FB0C542705029DCE
:100480004FEA065847EA1637B5EB08056EEB070C3E
:10049000870E920E47EA811742EA8312A7FB0201F8
:1004A000B6EB0B0164EB00042B0D43EA0C335E1832
:1004B00044EB1C50DA465146E7FB0201C5F3130436
:1004C0004FEA0B3343EA14534FEA0432019C43EAE8
:1004D0000603A4F10C040294009CCDE900B400F0E2
:1004E000C9F903B0BDE8F08F00200146F9E72DE916
:1004F000F04D81EA030404F0004B21F0004514465E
:100500004FF0000A23F0004150EA050220D054EADF
:1005100001021DD0C5F30A570246C5F31303C1F308
:100520001300C1F30A5640F4801543F48013A7EB7F
:100530000608101BD64608F2FD3873EB050002D3FF
:1005400008F1010801E092185B41B8F1000F03DAED
:1005500000200146BDE8F08D00204FF480110646D2
:1005600084460EE0171B73EB050705D3121B63EBE4
:10057000050306434CEA010C49084FEA3000921883
:100580005B4150EA0107EDD152EA030012D082EA42
:10059000040083EA0501084305D0101BAB4106D2D5
:1005A0000122002306E000224FF0004302E06FF03A
:1005B000010253101AEB06004CEB085110EB0A0035
:1005C00041EB0B01BDE8F04D00F045B970B521F0ED
:1005D000004303430CD0C1F30A550024D5EB0405B6
:1005E00064EB0403D617AD1AB34102DB00200146C9
:1005F00070BD201841EB025170BD962300221146B8
:1006000000F0FBB80EB5C10F80EAE0700844CA07DD
:10061000002140F233438DE80E000A460B4600F0FD
:1006200029F903B000BD0EB540F23341029100211B
:10063000CDE900110A460B4600F01CF903B000BDDD
:1006400020F00040C10DC0F3160040F400007F29E7
:1006500001DA00207047962903DCC1F19601C840F9
:100660007047963988407047C1F30A5210B5C1F3FC
:10067000130140F2FF3341F480119A4201DA002065
:1006800010BD40F233439A42A2F2334203DC52429D
:1006900000F088F810BD904010BD00F0004230F02E
:1006A00000400AD0C10D01F56071C0F3160042EAA6
:1006B0000151C208400711437047002001467047AE
:1006C00001F0004330B421F0004150EA010206D0AD
:1006D0000A0DA2F56072C1F31301002A02DC30BCDE
:1006E00000207047440F44EAC104C100E01830BC48
:1006F00000EBC25000F078B830B50B460146002040
:100700002022012409E021FA02F59D4205D303FAD3
:1007100002F5491B04FA02F52844151EA2F1010254
:10072000F1DC30BD2DE9F05F0546002092469B4686
:1007300088460646814640241BE0284641464746F7
:10074000224600F02FF853465A46C01A914110D362
:1007500011461846224600F016F82D1A67EB0108DC
:100760004F4622460120002100F00DF817EB00094A
:100770004E41201EA4F10104DFDC484631462A46E2
:100780004346BDE8F09F202A04DB203A00FA02F13C
:10079000002070479140C2F1200320FA03F319436F
:1007A00090407047202A04DB203A21FA02F0002111
:1007B000704721FA02F3D040C2F120029140084371
:1007C00019467047202A06DBCB17203A41FA02F07F
:1007D00043EAE07306E041FA02F3D040C2F120029E
:1007E00091400843194670470029A8BF7047401C34
:1007F000490008BF20F00100704710B4B0FA80FC37
:1008000000FA0CF050EA010404BF10BC704749B173
:10081000CCF1200421FA04F411FA0CF118BF0121E3
:1008200021430843A3EB0C01CB1D4FEA00614FEAC3
:10083000102042BF002010BC704700EBC350104492
:100840000029A4BF10BC7047401C490008BF20F01D
:10085000010010BC704710B5141E73F1000408DAD3
:10086000401C41F1000192185B411A4301D120F074
:10087000010010BD2DE9F04D92469B4611B1B1FA31
:1008800081F202E0B0FA80F220329046FFF77BFF5F
:1008900004460F4640EA0A0041EA0B0153465A4615
:1008A000084313D0114653EA010019D0C8F14002A1
:1008B0005046FFF777FF05460E46504659464246DA
:1008C000FFF761FF084305D0012004E020463946C8
:1008D000BDE8F08D0020054346EAE0762C4337431F
:1008E0000A986305E40AA0EB08000022FD0A44EA26
:1008F00047540A3002D500200146E9E701051019E6
:100900006941DDE9084500196941BDE8F04DA2E7FC
:10091000C1F30A52C1F3130140F2FF3341F48011D5
:100920009A4202DA00200146704740F233439A426D
:10093000A2F2334202DC5242FFF734BFFFF723BF7B
:1009400030B5041E71F1000404DB4FF00044404256
:1009500064EB0101141E73F1000405DB1C464FF02B
:100960000043524263EB04038B4208BF824230BD16
:1009700030B5041E71F1000404DB4FF00044404226
:1009800064EB0101141E73F1000405DB1C464FF0FB
:100990000043524263EB0403994208BF904230BDCA
:1009A000064C074D06E0E06840F0010394E80700BC
:1009B00098471034AC42F6D3FFF7A0FB803C000808
:1009C000A03C000810B500F087F80922002104209F
:1009D00000F096F802E00A2000F0F8FA00F052F871
:1009E0000028F8D0BDE8104000F076B801B14021F1
:1009F00041EAC0000AB1042100E000210843C0B26E
:100A000001F084B92DE9FC47DFF87480894604467B
:100A100016464FF47A751021404600F02DFC002157
:100A20000322084600F06CF80020CDE900040346DC
:100A30000246012100F086F8002419E0022000F0AF
:100A4000C5FA6D1E02D10020BDE8FC8700F01AF83F
:100A50000028F3D0002000F04EF8002001F056F9F5
:100A60000702002001F052F9384329F81400641CF1
:100A7000B442EBD31021404600F000FC0120E3E734
:100A80000000024010B54021034800F0EEFB08B121
:100A9000002010BD012010BD0000024070B50D4DBA
:100AA0001021284600F0E8FB0024FF2001F02EF979
:100AB000641CE4B2042CF8D30A2000F087FA00F09A
:100AC00036F80446FFF77EFF1021284600F0D6FBDB
:100AD000204670BD0000024010B500220121062012
:100AE000FFF784FF002001F011F90402002001F05B
:100AF0000DF9204310BD024601210320FFF776BF08
:100B000070B516460C460546002211460120FFF737
:100B10006DFF0CB1102000E0002040EA4510C0B28B
:100B200001F0F4F83046BDE8704001F0EFB810B5C0
:100B3000002201211046FFF759FFBDE810400020B8
:100B400001F0E4B82DE9F0471546DDE908890E46C5
:100B5000074600221C4611460220FFF747FF0FB14F
:100B6000202000E000200EB1102100E00021084309
:100B7000284301F0CBF80CB1202000E000205FEA10
:100B8000080100D01021084340EA0900BDE8F04701
:100B900001F0BCB82DE9F0410124124E124D274658
:100BA0002146002002F090FB6869B04203D920463C
:100BB00002F038FCEF706869B04204D96F702146CA
:100BC0000AA001F033FD687810B9204602F03CFB22
:100BD000204600F0C7F9641CE4B2052CE0D3BDE860
:100BE000F0810000000096C200000020202020209C
:100BF000202020202020CDA8B5C02564CEC2B6C8B4
:100C0000B2C9D1F9CAA7B0DC0D0A0000FEE70000A6
:100C10002DE9F047374B00261C1D251DDFF8D49029
:100C20002A1D37464FF0800809F11A0902F1040A1B
:100C30001868760820F440401860186840F4804036
:100C40001860208820F080002080208840F08000FC
:100C50002080286820F440402860286840F4404004
:100C60002860106820F440401060106840F4804014
:100C70001060A9F8008000BF00BF186820F4404051
:100C80001860106820F440401060106840F4804004
:100C9000106000BFBAF80000000601D546F08006DB
:100CA0003A2000F057F97F1CFFB2082FC0D3186814
:100CB00020F440401860186840F480401860208894
:100CC00020F080002080208840F08000208028686C
:100CD00020F440402860286840F4404028601068B4
:100CE00020F440401060106840F4804010603046AE
:100CF000BDE8F087000802402DE9F043374B186843
:100D000020F440401860186840F4804018601C1DB2
:100D1000208820F080002080208840F08000208003
:100D2000251D286820F440402860286840F4404091
:100D300028602A1D106820F440401060106840F4BC
:100D400080401060254880261A3006804FF4F079E4
:100D5000484600F0FFF8DFF8848008F11808A8F88A
:100D60000060186820F440401860106820F440408B
:100D70001060106840F480401060352000F0EAF800
:100D800016481030008800F08007484600F0E2F86E
:100D9000186820F440401860186840F480401860DB
:100DA000208820F080002080208840F08000208073
:100DB000286820F440402860286840F440402860BB
:100DC000106820F440401060106840F480401060CB
:100DD000A8F800603846BDE8F08300000008024033
:100DE00070B572B6FFF788FF2E4C08B162B657E0B7
:100DF000CC2000F06BF8442000F068F862B64FF4A5
:100E00007A7000F0E3F872B6FFF776FF0028EDD1B4
:100E1000CC2000F05BF8BE2000F058F8FFF7F8FE99
:100E20000446FFF7F5FE62B644EA00201E4D6FF05F
:100E300003044FF07C56B0F5805F1CDBC043401CC0
:100E4000FFF7E0FB2246FFF7C1FBFFF739FC29461D
:100E5000FFF7C4F93146FFF769F904461349FFF774
:100E6000EFF9FFF71AFC02460B4611A001F0DEFB7A
:100E700084F0004070BDFFF7C5FB2246FFF7A6FBDC
:100E8000FFF71EFC2946FFF7A9F93146FFF74EF997
:100E90000446FFF702FC02460B4608A001F0C6FB21
:100EA000204670BD0000AAC20000204100007A4424
:100EB0002D252E3366A1E60D0A00000074656D70C5
:100EC0003A252E3366A1E60D0A00000070B50346F0
:100ED0001F48016821F440410160016841F48041EC
:100EE0000160001D018821F080010180018841F02E
:100EF00080010180001D016821F44041016001680A
:100F000041F440410160001D016821F4404101604D
:100F1000016841F4804101600D4D002280241A35A2
:100F2000AE1ED8072C8005D0022000F013F83480C4
:100F30003A2004E03C2000F00DF83480022000F05C
:100F400009F8521C5B08D2B2082AEAD370BD00002F
:100F500000080240002101E000BF491C8142FBD390
:100F60007047000010B5164A362100EB800411705E
:100F7000144904EBC0001044CB7800F80B3C4A78CD
:100F80002AB110F80A2C42F0010200F80A2C8A78E3
:100F90002AB110F80A2C42F0020200F80A2C8A69E1
:100FA00040F8092C0A7900F8052C0A8920F8042C4D
:100FB0004A6940F8022C002048708870C87010BD43
:100FC000AA000020000000207047000001B5009832
:100FD00001F0A4F804480121016101690029FCD154
:100FE000BDE8084001F072B80000002010B50120F3
:100FF00000F034F8002804D0BDE81040012000F0D3
:1010000027B810BD10B54FF48064204600F026F8D4
:10101000002804D02046BDE8104000F019B810BDEB
:1010200010B5022000F01AF8002804D0BDE81040E6
:10103000022000F00DB810BD10B5042000F00EF82D
:10104000002804D0BDE81040042000F001B810BD15
:10105000014908607047000014040140034A01463A
:10106000002012680A4200D0012070471404014099
:101070002DE9FC470121084600F056FD0121022020
:1010800000F052FD0121042000F04EFD01248DF8F6
:101090000440002514208DF80650DFF838810090B8
:1010A0008DF805408DF807406946404600F098F8F5
:1010B0001421404600F0E2F88DF804408DF8065007
:1010C000DFF814914FF4A0668DF8054000968DF876
:1010D00007406946484600F083F83146484600F02C
:1010E000CDF88DF8044020208DF80650032600909E
:1010F0008DF805608DF807406946404600F070F8AD
:101100008DF804404FF402608DF8065000908DF881
:1011100005608DF807406946484600F061F88DF893
:10112000044020028DF806502C4F00908DF8056089
:101130008DF807406946384600F052F88DF80440B3
:1011400042208DF8065000908DF805608DF807401C
:101150006946404600F044F88DF804404FF4905042
:101160008DF8065000908DF805608DF807406946AF
:10117000484600F035F88DF8044007208DF80650F9
:1011800000908DF805408DF807406946484600F00C
:1011900027F88DF8044040208DF8065000908DF817
:1011A00005408DF807406946484600F019F88DF86B
:1011B00004408DF806508DF8054000948DF80740E6
:1011C0006946384600F00CF80121384600F054F822
:1011D000BDE8FC8700040240000802400000024015
:1011E000F0B5002301244FF0030E00BF0D6804FA90
:1011F00003F21540954222D106685D000EFA05FC07
:101200000F7926EA0C06AF40374307600E79012EAE
:1012100001D0022E0CD186684F7926EA0C06AF4029
:1012200037438760868896438A799A403243828022
:10123000C668CA7926EA0C06AA403243C2605B1C23
:10124000102BD3D3F0BD4B07DB0E9A40C90810B565
:1012500000EB8100016A0F249C40A1430162016AF6
:101260001143016210BD008A704702460020128AB5
:101270000A4200D0012070474183704701837047C4
:101280002DE9F0470126164FDFF858803446B14665
:10129000A7F10A05787830421AD02146002002F0E2
:1012A00013F86969414504D9204602F0BBF885F876
:1012B00003906969414505D985F8019021460AA046
:1012C00001F0B4F9204601F0BFFF2046FFF74AFEC7
:1012D0007006641C060EE4B2052CDBD3BDE8F08773
:1012E0000A000020000096C220202020202020207C
:1012F0002020CDA8B5C02564CEC2B6C8B2C9D1F9E8
:10130000CAA7B0DC0D0A000002480068C00700D080
:1013100000BEFEE7F0ED00E030B5012187B04805E2
:1013200000F00EFC0121022000F0FEFB0121084626
:1013300000F01EFC234D042208212846FFF783FFFE
:10134000042209212846FFF77EFF4FF440700490E5
:1013500003208DF8150002208DF8140001208DF86F
:10136000160000248DF8174004A92846FFF738FF1F
:10137000154D284600F036F9ADF804404BF6FF70E5
:10138000ADF80600114801210078ADF808002815D5
:10139000ADF80A000001ADF80C000D480090284699
:1013A00000F00CF96946284600F056F901224FF486
:1013B000E061284600F048F90121284600F008F9CC
:1013C00007B030BD0004024000540040350000204A
:1013D000400D030010B5074800F02FF9064948609A
:1013E000486810F47F4F04D0024814300188C9B215
:1013F000018010BD00540040280000202DE9F0417C
:10140000394F384600F019F9384C60606168384B44
:101410003548CA1A10300026364D99420BD012DCDE
:1014200010293DD0502906D0B1F1021F2ED04039ED
:10143000B1F5003F05D1018860782A18401C607022
:101440001170BDE8F0812C492C483C3AB2F580225D
:1014500003D0022A0FD0042AF3D12278284B1B781C
:101460009A420BD2026812F8011B02603846BDE8AE
:10147000F04100F04DB926700160E2E7267001608E
:101480003846BDE8F041012100F0A2B816481430FA
:101490000088A060144818300088A0606670D0E70B
:1014A0001849384600F0B4F80121384600F090F8A9
:1014B000154901200870287861788842C1D8667083
:1014C00007E06078295C11A001F0B0F86078401C5A
:1014D0006070287861788842F3D86670BDE8F04182
:1014E0000DA001F0A3B80000005400402800002027
:1014F00044000200E0000020AA000020200000209C
:101500001C000020100000103400002052783A30F7
:101510007825780D0A0000000D0A000010B500F0D3
:1015200021F800F004F8BDE81040FFF7F5BE08B55B
:101530004FF4A06000F084F91F208DF80000012016
:101540008DF8010000218DF802108DF80300684627
:1015500000F044F920208DF80000684600F03EF9C4
:1015600008BD00001CB50121022000F0DDFA4FF497
:101570007040009000208DF804000E4C8DF807009C
:1015800069462046FFF72CFE2046FFF76CFE010B54
:101590000948012908D0022908D0032908D00429C4
:1015A00001D1382101701CBD3021FBE73221F9E760
:1015B0003421F7E7000402403500002000290188AB
:1015C00002D041F4806101E021F480610180704724
:1015D0000029018802D041F0010101E021F0010160
:1015E00001807047094910B588424FF0010101D1CF
:1015F0004C0501E04FF48004204600F0ADFA20468F
:10160000BDE81040002100F0A7BA000000540040DF
:101610000CB50246002000920A0F21F07F41019292
:1016200002D0009A143202E0009A090C183200929B
:1016300012680A4200D001200CBD818A008B41EA69
:10164000004121F07F407047002A828801D00A4380
:1016500000E08A43828070477FB5044680880D464B
:1016600020F03F06684600F09BFA27490298B0FB3D
:10167000F1F189B20E43A680228822F00102228075
:10168000224B2A689A421BD85200B0FBF2F080B27B
:10169000042800D20420491C2184A083208840F023
:1016A0000100208021884FF6F5300140A8886A8922
:1016B000104308432080A8892989084320817FBDE1
:1016C000EB88A3F53F46FF3E0BD002EBC20303EBD2
:1016D0000212B0FBF2F080B240F48040020506D066
:1016E00007E002EB4202B0FBF2F080B2F6E740F016
:1016F00001004FF4967251434FF47A72B1FBF2F14C
:1017000040F40040C7E7000040420F00A0860100FF
:10171000018270470B494A780B4802708A78427000
:10172000C9788170017821B1022904D84078000776
:1017300001D001207047034901203639487000204C
:1017400070470000E00000200A0000202DE9F0476B
:101750000125174FDFF85C802C46A946A7F10A0641
:10176000787828421BD0B878284205D0204601F06E
:1017700059FE86F8039003E02146002001F0A4FD05
:101780007169414505D986F8019021460AA000F00B
:101790004DFF204601F058FD2046FFF7E3FB6806A9
:1017A000641C050EE4B2052CDAD3BDE8F087000016
:1017B0000A000020000096C22020202020202020A7
:1017C0002020CDA8B5C02564CEC2B6C8B2C9D1F913
:1017D000CAA7B0DC0D0A0000FEE7704730B50F2243
:1017E000C47801780123FCB1144C246801F1E02194
:1017F00004F4E064C4F5E064C4F30724C4F1040510
:10180000E2404478AC408578154025432A0181F8B0
:101810000024007800F01F018B404009800000F197
:10182000E020C0F8003130BD01F01F0083404809BE
:10183000800000F1E020C0F8803130BD0CED00E008
:101840000249084302490860704700000000FA0599
:101850000CED00E008B52B208DF8000001208DF87C
:10186000010002218DF802108DF803006846FFF791
:10187000B5FF08BD2DE9F041164D0446102128465C
:10188000FFF7FCFC144E2F1539463046FFF7F6FCE7
:101890004FF4807841463046FFF7F0FC042128469B
:1018A000FFF7ECFC012C0BD0022C0BD0032C0BD03F
:1018B000042C0CD104212846BDE8F041FFF7DCBC24
:1018C0001021F8E7394600E041463046F4E7BDE82C
:1018D000F081000000040240000802402DE9F04FB2
:1018E000234D8E4620212980224A4FF4006AA2F817
:1018F00000A0DFF88490CE00A9F81A601180AC1E19
:101900004FF0400BA4F800B0CF01931E1F804FF49E
:10191000007CA3F800C04FF00208A4F80080012862
:1019200006D0022806D0032807D0042809D107E0F2
:10193000218006E0A3F800A003E0A9F8186000E009
:1019400019807046BEF1010F0AD002280BD003287F
:101950000BD0BEF1040F01D1A5F80080BDE8F08FD7
:10196000A5F800B0FAE71780F8E7A2F800C0F5E79D
:101970001A0402401A0802400000024070B5401EDE
:10198000C4B2114DE0074FF00101284602D0FFF725
:1019900075FC01E0FFF770FCA0074FF0020128463C
:1019A00002D5FFF76BFC01E0FFF766FC60074FF024
:1019B0000401284603D5BDE87040FFF75FBCBDE8D1
:1019C0007040FFF759BC0000000802402DE9F043C9
:1019D0008946054689B00121042000F0B1F80126AE
:1019E0008DF80460002480208DF806404FF0020836
:1019F0001B4F00908DF807808DF8054069463846EA
:101A0000FFF7EEFB80213846FFF736FC154F02A9A1
:101A10003868ADF80840B0FBF5F0ADF81040ADF80F
:101A20000A40401E104C0390204600F06BFC7020D2
:101A3000ADF81400ADF8166038686421B0FBF5F01D
:101A4000401E00FB09F0B0FBF1F00690ADF81C80E1
:101A500005A9204600F005FC09B0BDE8F0830000B0
:101A60000004024078000020000800401CB58020DF
:101A7000009001208DF8040000208DF8060002215E
:101A80008DF807100A4C8DF8050069462046FFF7CF
:101A9000A7FB80212046FFF7EFFB064C00212046E4
:101AA00000F0FDFB0021204600F065FB1CBD00009E
:101AB00000040240000800401CB580200090022075
:101AC0008DF8040000208DF8060001208DF8070035
:101AD00003200B4C8DF8050069462046FFF780FB7C
:101AE000022207212046FFF7AEFB064C08212046C4
:101AF00000F0D5FB0121204600F03DFB1CBD00009D
:101B000000040240000800407047000005480078CB
:101B100018B1012803D0FFF719BEFFF73BB8FFF754
:101B2000AFBB00000A000020044A0029116801D060
:101B3000014300E081431160704700001C380240FF
:101B4000044A0029116801D0014300E0814311607B
:101B50007047000024380240044A0029116801D06F
:101B6000014300E0814311607047000018380240D3
:101B7000044A0029116801D0014300E0814311604B
:101B80007047000020380240044A0029116801D043
:101B9000014300E0814311607047000014380240A7
:101BA00030B5264A1168A2F1040411F00C034FF479
:101BB000004105D0042B09D0082B09D00C2B0AD0EA
:101BC0002368C3F342335B1C99401AE01C4918E0B8
:101BD0004FF4E10115E01168136801F47011194C1C
:101BE00003F4400304EB91410978012404EB93537F
:101BF000146814F4803F1ED04FF4E1046143B1FB3C
:101C0000F3F1016011680F2303EA11110D4B093341
:101C10005C5C0168E14041601468072505EA142412
:101C20001C5D21FA04F48460126805EAD2229A5CF1
:101C3000D140C16030BD024CE0E7000008380240EE
:101C40000024F4005C000020F0B5012187B00803F7
:101C5000FFF78EFF2B4F052211463846FFF7F3FAA8
:101C6000052206213846FFF7EEFA052207213846FD
:101C7000FFF7E9FA0226E0208DF8046000240090C6
:101C80008DF806408DF8076003208DF80500694641
:101C90003846FFF7A5FA10213846FFF7EFFA01257D
:101CA0008DF8045010208DF8064000908DF80750F4
:101CB0008DF8055069463846FFF792FA124F3846BC
:101CC00000F050F8ADF808404FF48270ADF80A000B
:101CD000ADF810506802ADF812000720ADF80C40C6
:101CE000ADF81440ADF81800ADF80E60ADF8164030
:101CF00002A9384600F06BF80121384600F028F8B8
:101D000007B0F0BD00000240003001402DE9F04175
:101D10004FF4A0450D4E07462C460221304600F0F8
:101D20004BF808B9641EF8D239463446304600F004
:101D30004CF80121204600F03FF808B96D1EF8D29A
:101D4000204600F040F8C0B2BDE8F081003001400C
:101D50000029018802D041F0400101E021F040015A
:101D600001807047114910B588420AD184140121BD
:101D70002046FFF709FF2046BDE810400021FFF78D
:101D800003BF0B49884202D10121041404E0094930
:101D900088420AD10121C4132046FFF7DDFE204608
:101DA000BDE810400021FFF7D7BE10BD0030014054
:101DB00000380040003C00400246002012890A42E0
:101DC00000D001207047808970478181704730B50D
:101DD00002884C8802F441530A88CD8822438C88BB
:101DE0002C4322430C8922434C8922438C89224371
:101DF000CC8922431A430280828B22F400628283C0
:101E0000098A018230BD70470CB50021224801913A
:101E10000091026842F4803202604FF4A0430268ED
:101E200002F400320092019A521C0192009A12B9F7
:101E3000019A9A42F3D1026892032BD501210091B5
:101E400016490A6842F004020A600A6842F0020277
:101E50000A600A6842F001020A600F4924310A68E8
:101E600042F080520A608A140D490A604A68D2061C
:101E7000FCD4094908310A6822F003020A600A68A2
:101E800042F002020A600A680A60016821F4807167
:101E900001600CBD00910CBD00380240003C0240C6
:101EA000007000400548007818B105490888401CBA
:101EB000088004480168491C016070470000002048
:101EC0000600002024000020104810B5016841F4ED
:101ED000807101600D4908310A680D4B1A400A6093
:101EE00002680C4B1A400260026822F480220260F1
:101EF000086820F47D000860091D00200860FFF7D5
:101F000083FF05494FF00060086010BD00380240B3
:101F10000CC03F88FEFFFEEE08ED00E070B5048CBB
:101F200024F001040484058B048C4FF6FF7606EA46
:101F30000313134325F0F3052B4324F00A020A434D
:101F400042F001010383018470BDF0B5048C24F0DC
:101F500010040484078B068C4FF6FF7404EA011505
:101F600027F4734704EA0331394304EA02220A439F
:101F700026F0A001294341F0100102830184F0BD45
:101F80003EB501210846FFF7DBFD1C208DF8080057
:101F900000248DF809408DF80A4001258DF80B507A
:101FA00002A8FFF71BFC02208DF8040003208DF827
:101FB00005008DF806400420064C00908DF807506F
:101FC00069462046FFF70CF9012202212046FFF75F
:101FD0003AF93EBD0000024010B509218C070022ED
:101FE000204600F036F92046BDE81040002100F000
:101FF000C2B800003EB500200121ADF80410ADF8D4
:102000000200ADF80600ADF808000820ADF80000A9
:10201000C4066946204600F0C6F801220921204680
:1020200000F017F90349022008600121204600F062
:10203000A2F83EBD440000202DE9F0410821CE0663
:10204000304600F0A4F81B4C1B4D4FF4FA7798B1C2
:102050000821304600F08CF8304600F096F82168F0
:10206000B94209D82968226840EA0140134941F879
:1020700022002068401C20602068B84207D910491F
:1020800001200860002028602060FFF7A5FF0121E3
:10209000304600F07CF8002809D00121304600F0DD
:1020A00067F82068002802D02868401C2860BDE836
:1020B000F0810000380000203C0000205015002076
:1020C0004000002001211020FFF73ABD10B5064C5A
:1020D00000220121204600F0BCF82046BDE8104057
:1020E000002100F048B800000010004010B5094C75
:1020F0000121204600F04BF800280AD0012120469B
:1021000000F036F804480168002902D00168491E31
:10211000016010BD001000401000002031B584B0F7
:102120004FF47A71049801900F4800240F4D006815
:10213000ADF80840B0FBF1F0ADF80000ADF802409A
:102140006946284600F0DEF80121284600F010F824
:102150006C6201221146284600F07BF801212846D6
:1021600000F009F805B030BD7800002000100040F4
:10217000C943018270470029018802D041F0010162
:1021800001E021F0010101807047C06B70470246F9
:102190000020138A92890B4202EA010202D0002A2F
:1021A00000D0012070472DE9F0410D460E88498886
:1021B000AA882B89044616B3042E28D0082E268C14
:1021C0004FF6FF702BD026F480562684A78B268CE2
:1021D00000EA022200EA013127F473473A4300EA99
:1021E0000330104326F420420A4342F48051A08376
:1021F0002184E9882046BDE8F04100F076B8FFF779
:102200008DFEE9882046BDE8F04100F052B8FFF7A6
:102210009CFEE9882046BDE8F04100F052B826F463
:1022200080762684A78B268C00EA012100EA031021
:10223000104327F0F307384326F420620A4342F4A0
:102240008071A0832184E9882046BDE8F04100F038
:1022500044B8002A828901D00A4300E08A4382817F
:10226000704730B5028C22F010020284038C028B7E
:102270000C7822F4E0454FF6FF7202EA04242C4366
:1022800023F020050B8902EA03132B434D8849688C
:1022900002EA05121A4381630483028430BD028B73
:1022A0004FF6FF7322F4006203EA01211143018318
:1022B0007047028B22F00C020283028B0A430283D6
:1022C0007047028B22F440620283028B4FF6FF7349
:1022D00003EA01210A4302837047828B22F00C0239
:1022E0008283828B0A4382837047828B22F440620E
:1022F0008283828B4FF6FF7303EA01210A438283B4
:10230000704700000288B0F1804F08D00F4B984210
:1023100005D00F4B984202D00E4B984203D122F0C9
:1023200070034A881A430C4B984206D00B4B9842D4
:1023300003D022F440730A891A4302804A68C262B9
:102340000988018501218182704700000004004056
:1023500000080040000C0040001000400014004045
:1023600070B588B0044627208DF8180001258DF837
:1023700019508DF81A508DF81B5006A8FFF72EFA49
:1023800002940024ADF810400C20ADF80C40ADF8DC
:1023900012000121ADF80E40ADF814408804FFF79B
:1023A000CFFB194E07220A213046FEF74CFF0722C9
:1023B0000B213046FEF747FFA802009002208DF85F
:1023C000040003208DF805008DF806408DF80750B5
:1023D00069463046FEF704FFE802009069460B4864
:1023E000FEF7FEFE0A4C02A9204600F0B1F80121DA
:1023F000204600F065F8012240F22551204600F009
:102400008FF808B070BD00000004024000000240D8
:102410000048004070B5104D0E4C40F22551284642
:1024200000F05FF8002813D0284600F0F6F8C1B29B
:10243000D4E90002821AB2F5806F09D2C0F3090014
:102440002044017220680549401C2060012008706A
:1024500070BD00002001002000380140360000203F
:1024600070B5124D40F225560F4C3146284600F00B
:1024700038F8002816D03146284600F01BF82846C8
:1024800000F0CBF8C1B2D4E90002821A802A09D246
:1024900000F07F002044017220680549401C206044
:1024A0000120087070BD0000280500200048004091
:1024B000370000200A0A01219140C943018070477A
:1024C0000029818902D041F4005101E021F400513A
:1024D000818170470246002012880A4200D0012004
:1024E000704730B501F01F0201240025C1F34213EB
:1024F00004FA02F2012B0FD0022B0FD0838A4FEA8D
:1025000011210088134204FA01F400EA040001D00A
:1025100000B10125284630BD8389F0E7038AEEE744
:1025200010B5C1F3421301F01F040121A140012B9A
:1025300007D0022B07D01430002A026805D00A43C6
:1025400004E00C30F8E71030F6E78A43026010BD73
:102550007FB50446008A0D4620F44051E8880843C0
:102560002082A08941F20C618843A9882A891143FD
:102570006A8902431143A181A08A20F44071A8898D
:102580000843A0826846FFF70BFB1948844201D13B
:10259000039800E00298A189090400EBC00101EB57
:1025A0000010296801D5490000E08900B0FBF1F076
:1025B0006422B0FBF2F109010B096FF018056B43BF
:1025C00000EB8300A3891D044FF0320306D503EB13
:1025D000C000B0FBF2F000F0070005E003EB0010D4
:1025E000B0FBF2F000F00F00084320817FBD000037
:1025F0000038014070B50646002400F012F84FF490
:10260000A02580213046FFF765FF002804D1204631
:10261000641CA4B2A842F4D370BD8088C0F3080043
:102620007047C1F3080181807047FEE70FB4054B86
:1026300010B503A9044A029800F036F910BC5DF801
:1026400014FB000035320008980000202DE9F0410D
:102650004F1E00EBC7010446D1E9000115461E4696
:1026600037F006020DD02A463346FDF7CEFE7F1E18
:1026700004EBC703D3E90023FDF720FE37F0060281
:10268000F1D1022F25D0042F13D0062F18BFBDE89B
:10269000F0812A463346FDF7B8FED4E90A23FDF758
:1026A0000DFE2A463346FDF7B0FED4E90823FDF7B8
:1026B00005FE2A463346FDF7A8FED4E90623FDF7BA
:1026C000FDFD2A463346FDF7A0FED4E90423FDF7BD
:1026D000F5FD2A463346FDF798FED4E90223FDF7BF
:1026E000EDFD2A463346FDF790FED4E90023BDE810
:1026F000F041FDF7E3BD00000022134610460149FA
:10270000FDF7F5BE0000F03F0122FDF75FBF00229C
:10271000134610461146FDF7EABE02E008C8121F34
:1027200008C1002AFAD170477047002001E001C1BA
:10273000121F002AFBD17047014908607047000052
:102740009C0000202DE9FF5FDDE90220010DDDF88E
:1027500038B0024318D044F61050A1F2FF31414383
:102760000D140F98012820D0A5EB0B00401C5FEA48
:10277000000A4FF00004474EDFF81C91A046504677
:1027800016D5CAF1000728E00F98012443A20128BA
:1027900008D0002100980F9BC0E90021C0E9024346
:1027A000BDE8FF9F6FEA0B01F4E7CBF10000DEE725
:1027B000074612E0F80707D022463346404649460E
:1027C000FDF723FE804689462246334610461946C9
:1027D000FDF71BFE04460E467F10002FEAD1DDE90F
:1027E0000201BAF1000F42464B4602DAFDF70DFE38
:1027F00001E0FDF77CFE04460E460022284BFEF762
:10280000B7F803D84FF0FF30014607E00022254B10
:1028100020463146FDF752FDFEF77AF8102409E014
:10282000002C0ADB0A220023FDF77CFF019B3032DB
:102830001A55641E50EA0102F2D1641C019AC4F1D7
:10284000110314440F9A012A03D0012208430DD129
:102850000AE0084304D000204FF0110B0F9080E7EE
:10286000A3EB0B056D1E0DE05B4504DD4FF0000290
:1028700005F1010504E003DA4FF00002A5F10105BE
:10288000002AECD000980F99C0E90231C0E9004558
:1028900086E70000000024400000F03F3000000008
:1028A0000000F0430000E03F2DE9FF4F95B09B464C
:1028B0008946064600250FE2252877D100242746C1
:1028C000F84A0121059400E0044316F8013F203B3B
:1028D00001FA03F01042F7D130782A2811D06FF0B6
:1028E0002F033078A0F13002092A16D8059A44F057
:1028F000020402EB820203EB42021044761C0590B4
:10290000EFE759F8042B0592002A03DA504244F409
:102910000054059044F00204761C30782E2816D11D
:1029200016F8010F44F004042A280DD06FF02F028E
:102930003078A0F13003092B09D807EB870302EBAD
:102940004303C718761CF3E759F8047B761C3078EC
:102950006C280FD006DC4C2817D068280DD06A28C8
:1029600014D104E0742810D07A280FD10DE044F47B
:1029700000140AE044F4801401E044F44014727836
:10298000824202D104F58014761C761C30786628C9
:102990000BD013DC582877D009DC002875D04528E7
:1029A000F6D04628F4D047281AD19DE118E06328D4
:1029B00035D0642879D0652812D195E1702873D07C
:1029C00008DC6728F1D069286FD06E280DD06F28F9
:1029D00006D1B5E073282CD0752875D0782874D02E
:1029E0005A46179990476D1C75E1C4F302500228AE
:1029F00009D003280DD0D9F8001004280DD00D609F
:102A000009F1040967E1D9F80010EA17C1E9005299
:102A1000F6E7D9F800100D80F2E70D70F0E719F82D
:102A2000041B8DF8001000208DF80100EA460120FB
:102A300003E059F804AB4FF0FF3061074FF000019D
:102A400002D40DE008F101018846B9420FDA804551
:102A5000F8DB1AF808100029F4D108E008F10101A8
:102A600088468142FADB1AF808100029F6D1059849
:102A70005B46A0EB080721463846179A00F094FA07
:102A8000284400EB080507E04DE029E10DE01AF8C5
:102A9000010B5A4617999047B8F10108F7D25B46E7
:102AA00021463846179A13E142E00A220092C4F305
:102AB00002524FF0000A022A08D059F804CB032A28
:102AC0004FEAEC710AD00DE029E02AE009F1070194
:102AD00021F00702F2E802C1914609E00FFA8CFCEE
:102AE0004FEAEC71042A03D14FFA8CFC4FEAEC71E7
:102AF000002907DA0A460021DCF1000C61EB020133
:102B00002D2202E0220504D52B228DF8042001227B
:102B100003E0E20701D02022F7E7904659E00A21BE
:102B200002E010220DE010214FF0000A00910BE0AE
:102B300010224FF0000A44F004040827009203E03A
:102B400008224FF0000A0092C4F30252022A05D074
:102B500059F804CB0021032A08D009E009F1070144
:102B600021F00702F2E802C1914605E01FFA8CFC51
:102B7000042A01D10CF0FF0C4FF00008220728D5E1
:102B8000702806D0009B83F0100353EA0A0305D097
:102B90000EE040228DF80420012208E05CEA0102E8
:102BA00006D030228DF804208DF8050002229046D0
:102BB000009B83F0080353EA0A030AD15CEA01028E
:102BC00001D1620705D530228DF804204FF00108AD
:102BD0007F1E582804D034A003900EA802900DE068
:102BE00036A0F9E753466046009AFDF79BFD844600
:102BF0000398825C0298401E029002705CEA010019
:102C0000F0D1029806A9081A00F1200A600702D53F
:102C100024F4803400E00127574502DDA7EB0A00C9
:102C200000E0002000EB0A01009005984144401AA2
:102C30000590E00306D45B462146179A059800F0FC
:102C4000B3F90544002706E001A85A46C05D17996C
:102C500090476D1C7F1C4745F6DBE0030CD55B46B7
:102C60002146179A059800F09FF9054404E03020AA
:102C70005A46179990476D1C0099481E00900029EC
:102C8000F5DC08E0029802995A460078491C029146
:102C9000179990476D1CBAF10001AAF1010AF1DC05
:102CA00065E1000009280100303132333435363710
:102CB0003839616263646566000000003031323388
:102CC0003435363738394142434445460000000028
:102CD00000F058F90544761C307800287FF4ECADFC
:102CE00019B02846BDE8F08F620700D4062709F125
:102CF000070222F0070CFCE80223E14603F000483B
:102D00005FEA080C02D00FF2702C0DE05FEA045C61
:102D100002D50FF2682C07E05FEAC47C02D00FF204
:102D2000602C01E0AFF2700C4FF0FF3823F000434D
:102D3000CDF850C065280CD006DC452809D04628BF
:102D40001DD047283DD13DE0662818D067287ED1A8
:102D500038E00021112F01DB112000E0781CCDE9C3
:102D6000000106A90EA8FFF7EDFCDDE90F010E9AA0
:102D700003910021009207F1010A04914DE04FF008
:102D800000400097CDE9011006A90EA8FFF7DAFC74
:102D9000DDE90F0203920E9B11990022DDF80CA0D1
:102DA0000093049211B9791C00EB010AB7EB0A00F9
:102DB00004D4C0F1FF3007F1010A0490AAEB070028
:102DC000019044E0012F00DA01270021112F01DDDD
:102DD000112000E03846CDE9000106A90EA8FFF752
:102DE000B1FCDDE90F010E9A0391002104910092DC
:102DF000BA4621070CD40399514500DA8A46BAF144
:102E0000010F05DD009AAAF10101515C302908D0BB
:102E1000B84202DA10F1040F06DA0121CDE90110FF
:102E200015E0AAF10101E9E7002805DC0499014455
:102E30000491AAEB000102E0411C514500DD8A46E5
:102E40000499401A401C01904FF000400290200766
:102E500004D40198504501DBCDF8048000208DF8A2
:102E60004F0002980DF14F07B0F1004F25D02B20F5
:102E70000E9002984FF0020800280CDA40420290AF
:102E80002D200E9007E00A210298FDF735FC303125
:102E9000029007F8011DB8F10001A8F10108F2DC69
:102EA00002980028EFD1791E0E980870307800F053
:102EB000200040F0450007F8020D12A8C01B00F1E9
:102EC00007081498007800B1012000EB0A0101986E
:102ED00001EBE07105984144401A401E0590E00363
:102EE00006D45B462146179A059800F05DF8054424
:102EF0001498007818B15A46179990476D1CE00352
:102F000024D55B462146179A059800F04DF80544F4
:102F10001CE00498002807DBDDE90301884203DD9B
:102F20000098405C179901E0179930205A46904765
:102F3000049805F10105401C04900198401E019081
:102F400004D12E205A46179990476D1CBAF1000102
:102F5000AAF1010ADDDC05E017F8010B5A461799C2
:102F600090476D1CB8F10001A8F10108F4DC5B4644
:102F70002146179A0598ABE62D0000002B000000B3
:102F8000200000002DE9F041044600251E461746AA
:102F9000880404D405E039462020B0476D1C641E27
:102FA000F9D52846BDE8F0812DE9F0410446002519
:102FB0001E469046C80301D5302700E0202788042C
:102FC00004D505E041463846B0476D1C641EF9D56E
:102FD0002846BDE8F08100002DE9FF4F0027DFF80B
:102FE000DCA081B00E46B946B8463C463D46DFF807
:102FF000D0B0CAF804700FE0019850F825000444DE
:10300000B4FBF6F04BF82540FDF7F7FA3946FDF72B
:103010008DF86D1C0746ADB2B542EDD3CAF8044039
:10302000DBF80050DA46601BB0FBF6F0FDF7E5FA7E
:1030300000902846FDF7E1FA0546002421E000BF94
:103040005AF82400FDF7D9FA83463946FDF7C0F84F
:103050000146FDF7C3F84946FDF768F88146584632
:103060002946FDF7B5F80146FDF7B8F84146FDF7EA
:103070005DF8804628460099FDF758F8641C05461F
:10308000A4B2B442DCD30098FDF7DAFA03990880C1
:1030900041464846FDF7D4F8FDF7FFFA00F000FC82
:1030A0000022084BFDF7B1F900F056F8FDF7DCFA05
:1030B0000499087005B0BDE8F08F000044000020BE
:1030C000B005002000002440F0B5002788B07D1E28
:1030D0003E463A463B466C46A354521C202AFBD33C
:1030E00000230CE050F82320BA4201D950F8237095
:1030F00050F82320AA4201D250F823505B1C8B4287
:10310000F0D37A1B5209002301E05B1CDBB25208AA
:10311000FBD15B1C0BE000BF50F822707F1BDF402F
:10312000521C14F807C00CF1010C04F807C08A42C5
:10313000F2D300200246A15C814201D9084616461E
:10314000521C202AF7D39E40711901205B1E984023
:1031500008B00844F0BD00002DE9F041C1F30A5267
:10316000A2F2FF362F4A304B0D460446142E2FDABA
:10317000002E12DAFDF7A2F800221346FDF7F8FB45
:103180004CD2002DA4BF0024254647DA25F000408C
:10319000204318BF254D41D018E0DFF894C02CFA29
:1031A00006F705EA070C5CEA040C08BFBDE8F081ED
:1031B000FDF784F800221346FDF7DAFB2ED2002D2E
:1031C00003DA4FF48010F0400544BD43002425E0AD
:1031D000332EC8BFBDE8F081A6F1140C4FF0FF37C5
:1031E00027FA0CF73C4208BFBDE8F081FDF70AF969
:1031F00000221346FDF7BCFB10D2002D0DDA142E71
:1032000008BF6D1C09D0C6F13400012101FA00F09D
:103210002044A04238BF6D1C0446BC4329462046CA
:10322000BDE8F0819C7500883CE4377E0000F0BF6B
:10323000FFFF0F0010B50446C1B20248FFF7DAF9EC
:10324000204610BD004800402DE9F0410024104DFB
:10325000074601263846FEF70DFBFEF72DFC2E70C3
:10326000611C0CA0FFF7E2F9384600F0E1FB0128F1
:103270000AD0022C04D1AE7039460AA0FFF7D6F965
:10328000641CE4B2032CE5D3BDE8F041FEF7EEBBCD
:1032900000000020B5DA2564B4CEB2C9D1F90D0A18
:1032A00000000000202020202020CDA8B5C02564EB
:1032B000202020202020D5F1CFD2B2C9D1F9CAA731
:1032C000B0DCA3A10D0A00002DE9F35F0446402104
:1032D0003F48FDF7D1FFFDF7E1FB0198FEF74EFBFC
:1032E0001E20FDF773FE0026B04605223949204610
:1032F000FDF788FBDFF8DCB0002700BF3BF81700C4
:10330000FDF791F904460D460022334BFDF77DF899
:103310004FF0C862314BFDF775F881468A464FF091
:1033200000422F4B20462946FDF76FF82D4A2E4BC1
:10333000FCF7C4FF4A465346FDF7D9F881468A4652
:1033400000F000F90D460446284A294BFDF75DF8C8
:1033500022462B46FDF759F822462B46FDF755F835
:1033600005460C464846514600F0ECF8214A224BEF
:10337000FDF74BF8214A224BFCF7A0FF2A462346D3
:10338000FCF79CFF02460B4600201E49FDF7AFF8F4
:1033900000221D4BFDF733F832464346FCF78EFF03
:1033A0007F1C06468846052FA8DB0022174BFDF739
:1033B0009EF8FDF785F916494861FDF76EF902465A
:1033C0000B4614A00199FFF731F90120BDE8FC9FDD
:1033D00000080240A0000020004CDD400960DD41F3
:1033E00074D2CA410000588D957242420E7007C2D5
:1033F000835A7B3E42823D810B0D2F3F23090CA354
:103400006A05573F0000F03F001071400000144073
:1034100000000020C4A3C4E2CEC2B6C825643A2589
:10342000660D0A0010B5044640210B48FDF726FF43
:103430002046FEF7A3FA1E20FDF7C8FDFDF7D0FCDD
:1034400006494861FDF729F902460B4604A0FFF73B
:10345000EDF8012010BD000000080240000000202F
:10346000CAFDD7D6CEC2B6C825660D0A0000000038
:103470002DE9FF5F2E4F4FF0000A8946064654465D
:103480003221C7F808A0FFF71FFEF860FDF7CBF860
:103490008B468046274A284BFCF7B7FFFDF7E4F838
:1034A00005463861404659464FF03332234BFCF70E
:1034B000ACFFFDF7D9F8024678610021204BB868CF
:1034C00028E000BF56F821C06044A84207D39042CC
:1034D00005D800BF43F82400641CA4B217E0A8423A
:1034E00016D30AF101001FFA80FA56F82100A8420B
:1034F00006D356F82100904202D856F82100E9E799
:1035000056F82100A84202D256F8210000E000201F
:10351000491C89B24945D5D3B860DDE9022321466B
:103520000748FFF759FD04B05046BDE8F09F000082
:10353000440000209A9999999999E93F3333F33FD0
:10354000800D00202DE9F04DC84A002490B0914232
:1035500005DA21F00043934201D805D120B110B023
:10356000BDE8F04DFFF7D0B8B1F5801F1BDA53EA84
:10357000000209D0002911DA0120FFF7DDF810B0B0
:10358000BDE8F04DFFF7C3B80220FFF7D5F8FFF70D
:10359000B3F810B081F00041BDE8F08D6FF0350454
:1035A0003622FDF713F804EB2152C1F31308B0499A
:1035B000A2F2FF33414401F4801282F07F6103EBF9
:1035C000225281F04051009241EA08010022A94BA9
:1035D000FCF715FF044608F10200A74EC0F31300E4
:1035E0000D467E44032867D2D6E900232046FDF726
:1035F000A7F91ED10098002802BFD6E9000110B03B
:10360000BDE8F08DFCF7FEFF07460C469B4A9C4B3D
:10361000FCF7FBFE06460D469A4A9B4B3846214670
:10362000FCF7F3FE10B032462B46BDE8F04DFCF738
:1036300045BE4FF05532954B20462946FCF7E5FE36
:103640000022934BFCF7DEFE06460F4622462B4631
:1036500010461946FCF7D9FE32463B46FCF7D5FE2C
:10366000064600980F46F0B1FCF7CCFF80468A462C
:10367000824A834BFCF7C9FE32463B46FCF7C2FE4A
:1036800022462B46FCF7BBFE05460C467D4A7E4B88
:1036900040465146FCF7B9FE10B02A462346BDE825
:1036A000F04DFCF7ACBE0B4610B032462046294622
:1036B000BDE8F04DFCF7A3BE00224FF0804320464A
:1036C000FCF7FCFD02460B4620462946FCF70FFF9F
:1036D00006460F460098FCF795FFCDE904013246F7
:1036E0003B4610463946FCF790FE0C9069480C9A10
:1036F0004044019009910B461046FCF786FE824635
:10370000024665488B46C8F151080B4608F5D72894
:1037100003217844FEF79AFF52465B46FCF775FE9C
:103720000A905E480D9152465B4604217844FEF7AC
:103730008DFF099B0C9AFCF768FE844601980D9B4F
:1037400040EA080860460A9AFCF7B8FD83460891EB
:10375000B8F1000F4EDD4FF0FF3220462946FCF74E
:1037600035FF22462B46FCF750FE804600988A46DD
:1037700060B3DDE90401414A414BFCF746FE099183
:1037800000905A4640465146089BFCF797FD32464A
:103790003B46FCF73AFE099B009AFCF78FFD424638
:1037A0005346FCF72FFE22462B46FCF728FE044624
:1037B0000D46DDE90401334A334BFCF726FE10B019
:1037C00022462B46BDE8F04DFCF719BE5A4640464E
:1037D000089BFCF773FD32463B46FCF716FE42465B
:1037E0005346FCF70FFE10B022462B46BDE8F04DC5
:1037F000FCF708BE009840B3DDE904011F4A204BE6
:10380000FCF703FE80468A465A4620462946089B16
:10381000FCF7F5FD32463B46FCF7F7FD42465346C2
:10382000FCF7EDFD22462B46FCF7E9FD04460D466C
:10383000DDE90401134A144BFCF7E7FD10B0224602
:103840002B46BDE8F04DFCF7DABD0B465A46204644
:103850002946FCF7D4FD32463B46FCF7D6FD10B0B6
:1038600022462B46BDE8F04DFCF7CCBD0000F07FB2
:10387000645F09000000F03F92060000763C793555
:10388000EF39EA3D0000E0FE422EE63F5555D53FB8
:103890000000E03F86EBF9FF2A0500002805000044
:1038A0002DE9F041044630480025814205DA21F037
:1038B0000042824201D805D124B12046BDE8F04142
:1038C000FEF722BFB1F5801F1BDA52EA040008D0D0
:1038D00000290FDA0120FEF72FFFBDE8F041FEF7C7
:1038E00016BF0220FEF728FFFEF706FF81F0004119
:1038F000BDE8F0816FF0350536222046FCF766FE04
:10390000044605EB2150A0F2FF32D00F40F2FF3306
:103910001B1A0D4663F31F551044FCF773FE064651
:103920000F4629462046FFF70DFE104A104BFCF7C4
:103930006CFD04460D460F4A0F4B30463946FCF7E6
:1039400064FD22462B46FCF7B9FC05460C460B4AA3
:103950000B4B30463946FCF758FD2A462346BDE856
:10396000F041FCF7ABBC00000000F07F0EE526152F
:103970007BCBDB3F362BF111F3FE593D00609F50AE
:103980001344D33F4FF4C060FDF75AFF1E484FF475
:103990007A710068B0FBF1F0401EB0F1807F32D246
:1039A0004FF0E0214861194AF02082F8140D002000
:1039B000886107200861FEF785FBFDF74BFFFDF7E7
:1039C00057FB4FF4E130FEF7CBFCFEF73DF9FEF775
:1039D000D7FA322141F27070FDF7F8FFFDF79EFD36
:1039E0000BA0FEF723FE104801780029FCD0FDF75C
:1039F00091FEFEF78BF801210C48FDF73FFC0020FB
:103A0000FDF738FFFEE7FEE7780000200FE000E05A
:103A100048617264776172652068616420726561D3
:103A20006479210D0A0000003400002000000240EB
:103A30002DE9F0438146014685B053A0FEF7F6FD1F
:103A4000564C40F2DC51E088884204D2A0F2DC50AF
:103A50004042FDF7BBFA0025E5802570FEF706F829
:103A600000214846FDF73AFF0A20FDF7AFFA494624
:103A70000020FDF733FF3220FDF7A8FAFEF7BAFA6F
:103A8000474801680029FCD005600020FDF7F2FEE0
:103A9000B9F1000F75D0434D00204FF4FA7600BF06
:103AA00055F8202005EB80014B689A4203D955F860
:103AB0002020521C4A60496855F82020891A45F890
:103AC0002010401C80B2B042EAD3344B01AA1B1D27
:103AD00031463448FFF780FADFF8CC80BDF8042087
:103AE0004946D8F80000B0FBF2F0009023792FA0EF
:103AF000FEF79CFD294B01AA1B1D31462948FFF703
:103B0000B7FC2081014635A0FEF790FDBDF804000A
:103B100008B1207950B9002755F82720394633A03D
:103B2000FEF784FD7F1CBFB2B742F5D3BDF8040099
:103B30000646FCF762FD0546D8F80000FCF75DFD7F
:103B40002946FCF77DFB0546FCF77AFD074628462B
:103B5000FCF7A3FD02AA82E8830020890090237964
:103B60003246494626A0FEF761FDA561207923284B
:103B700007D320890A2804D8012005B0BDE8F083C6
:103B8000FFE70020F9E70000C6B5C2CAB2C9D1F903
:103B9000CDA8B5C0A3BA25640D0A0000000000201E
:103BA0004000002050150020780000204368616E1E
:103BB000202564206265666F72655F66696C746556
:103BC000723A6B3D2025642064623D2025642066A6
:103BD0007265713D2025640D0A0000006572725FF8
:103BE000636E743D2025640D0A00000064617461F9
:103BF000627566315B25645D203D2025640D0A00F9
:103C00004368616E2025642061667465725F666931
:103C10006C7465723A6B3D2025642064623D2025FA
:103C200064206572725F636E743D20256420667245
:103C300065713D20252E33660925640D0A000000BC
:103C400004FA97999999D93FAF788E1DC571CC3FE9
:103C50009FC678D0099AC33F935555555555E53FB2
:103C6000599322942449D23FDE03CB966446C73F42
:103C700044523EDF12F1C23F00000000000000008D
:103C8000A03C000800000020A00000001A27000847
:103C9000403D0008A0000020882000002A270008DE
:103CA0000000000000000000000000000000000014
:103CB00000000000000000000000000036000000CE
:103CC00000000000000000000000000000000000F4
:103CD00000000000000000000000000000000000E4
:103CE00000000000000000000000000000000000D4
:103CF00000000000000000000000000003040608AF
:103D00000C1018203000000000010203040102031F
:103D1000040607080900000000807000030406087C
:103D20000C10182030000000000000000001020309
:103D30000406070809000000000000000000000061
:04000005080000F5FA
:00000001FF
